:1000000019C033C032C0A2C130C02FC02EC02DC015
:100010002CC069C22AC01CC128C027C026C025C068
:100020008CC023C022C021C020C01FC01EC01DC064
:100030001CC01BC011241FBECFEFD4E0DEBFCDBF5C
:1000400011E0A0E0B1E0E8EFF5E002C005900D920C
:10005000A631B107D9F711E0A6E1B1E001C01D92C8
:10006000A831B107E1F702D0C5C2CACF80E090E065
:1000700020E80FB6F89420936100809361000FBED2
:100080008091600088618093600010926000F89415
:10009000809164008160809364008091640084603A
:1000A00080936400809164008068809364008091F4
:1000B000640082608093640014B88FE385B98093F4
:1000C0006B0091E09093680088B1807C88B987B11B
:1000D0008F6387B98AB187608AB98BB1887F8BB902
:1000E00053985B9816BC95BD80916E00816080939B
:1000F0006E0010928500109284008AE78093890038
:1001000082E1809388001092800085E080938100D6
:1001100080916F00826080936F001092B00086E043
:100120008093B10018B88BB1887F8BB98091700033
:100130008E7F809370007894FFCF1F920F920FB63E
:100140000F921124AF92BF92CF92DF92EF92FF9263
:100150000F931F932F933F934F935F938F939F938F
:10016000AF93BF932091140189B130E086958695B5
:10017000869590E0817090702817390709F44CC07B
:10018000809114018F3F09F447C0E0901001F09076
:100190001101009112011091130180911401A0909E
:1001A0001001B0901101C0901201D0901301209164
:1001B000100130911101409112015091130190E012
:1001C000A0E0B0E0689412F85695479537952795CA
:1001D0001694D1F782279327A427B5278A259B2534
:1001E000AC25BD2581709070A070B070B82FAA2783
:1001F0009927882716950795F794E7948E299F29C4
:10020000A02BB12B8093100190931101A0931201A8
:10021000B09313018FEF05C089B1869586958695B9
:10022000817080931401BF91AF919F918F915F91E5
:100230004F913F912F911F910F91FF90EF90DF9081
:10024000CF90BF90AF900F900FBE0F901F9018955A
:100250001F920F920FB60F9211242F938F939F939B
:10026000EF93FF931092850010928400E0E7F0E096
:1002700080818E7F808318B88BB1887F8BB9808115
:100280008E7F8083D89AE8E6F0E080818160808369
:100290001092160186E090E020E80FB6F8942093C3
:1002A0006100809361000FBEFF91EF919F918F914C
:1002B0002F910F900FBE0F901F90189514B88FE3D9
:1002C00085B980936B0081E08093680088B1807C61
:1002D00088B987B18F6387B98AB187608AB98BB1D2
:1002E000887F8BB9089553985B9816BC81E085BDD3
:1002F000EEE6F0E08081816080830895EF92FF92C6
:100300000F931F93E0901001F090110100911201E2
:1003100010911301282F30E040E050E0C801B701F0
:1003200033D16F5F1092850010928400809170002D
:100330008160809370001092B200643610F4609374
:1003400016011F910F91FF90EF9008951F920F9249
:100350000FB60F9211242F933F934F935F936F9398
:100360007F938F939F93AF93BF93CF93DF93EF933D
:10037000FF93809168008E7F80936800D89A80E018
:1003800090E020E80FB6F89420936100809361001C
:100390000FBEC0E0D0E083B190E00C2E02C0959576
:1003A00087950A94E2F780FD05C0FE01E65FFE4FE7
:1003B0008081A4DF2196C630D10569F7FF91EF91C6
:1003C000DF91CF91BF91AF919F918F917F916F916D
:1003D0005F914F913F912F910F900FBE0F901F9003
:1003E000189510928500109284008AE78093890006
:1003F00082E1809388001092800085E080938100E4
:10040000EFE6F0E08081826080831092B00086E0A9
:100410008093B10008951092850010928400E0E767
:10042000F0E08081816080831092B200089518B856
:100430008BB1887F8BB9E0E7F0E080818E7F80838D
:100440000895982F1092850010928400809170007A
:100450008160809370001092B200943610F49093F3
:1004600016010895209116018091160130E06AE08E
:100470006CD0A901491B5109CA016AE070E071D032
:10048000FB01E050FF4F90815A98599A892F8F7342
:1004900088B92BB19295969596959370892F817016
:1004A000822B8BB98BB19E6F98239BB90895809155
:1004B00016016AE04AD0E0E0F1E0E90FF11D908119
:1004C0005A9A5998892F8F7388B92BB1929596951E
:1004D00096959370892F8170822B8BB98BB19E6F0B
:1004E00098239BB908951F920F920FB60F92112473
:1004F0002F933F934F935F936F937F938F939F932C
:10050000AF93BF93EF93FF9380911701882339F442
:1005100080911601CCDF81E08093170105C08091A6
:100520001601A0DF10921701FF91EF91BF91AF91DB
:100530009F918F917F916F915F914F913F912F91FB
:100540000F900FBE0F901F901895991B79E004C073
:10055000991F961708F0961B881F7A95C9F7809502
:10056000089597FB092E07260AD077FD04D02ED0D8
:1005700006D000201AF4709561957F4F0895F6F724
:10058000909581959F4F0895A1E21A2EAA1BBB1B3F
:10059000FD010DC0AA1FBB1FEE1FFF1FA217B3074F
:1005A000E407F50720F0A21BB30BE40BF50B661F65
:1005B000771F881F991F1A9469F760957095809529
:1005C00090959B01AC01BD01CF010895AA1BBB1BF7
:1005D00051E107C0AA1FBB1FA617B70710F0A61B43
:1005E000B70B881F991F5A95A9F780959095BC0164
:0805F000CD010895F894FFCF3E
:1005F800C0F9A4B0999282F88090140C0A080604F5
:0606080055555501FF00ED
:00000001FF
